:10000000E9C0000003C1000001C10000FFC0000002
:10001000FDC00000FBC00000F9C00000F7C00000F8
:10002000F5C00000F3C00000F1C0000071C6000080
:1000300016C70000EBC00000E9C00000E7C00000E8
:10004000E5C00000E3C00000E1C00000DFC0000028
:10005000DDC00000DBC00000D9C000009EC300006E
:10006000D5C00000D3C00000D1C00000CFC0000048
:10007000CDC000009307B507A708B507A708FA0782
:100080001708A7086A087C081203440052005500AC
:100090004D0043004F00520045001803410072001C
:1000A0006400750069006E006F00200055006E004E
:1000B0006F0024036B00750077006100740061001D
:1000C000790040006E0069006600740079002E001F
:1000D00063006F006D003203410072006400750020
:1000E00069006E006F00200028007700770077001D
:1000F0002E00610072006400750069006E006F00E0
:100100002E0063006300290004030904090265004E
:10011000020100C0320904000000010100000924AE
:1001200001000109000101090401000201030000AE
:1001300007240100014100062402010100062402F7
:100140000202000924030103010201000924030241
:10015000040101010009050102400000000005251D
:10016000010101090582024000000000052501018E
:100170000309023E00020100C0320904000001022E
:1001800002010005240001100424020605240600D3
:1001900001070582030800FF09040100020A0000AC
:1001A0000007050402400001070583024000011218
:1001B000011001000000084123B2320000010200DA
:1001C0000112011001020000084123010001000199
:1001D00002DC010011241FBECFEFD2E0DEBFCDBF95
:1001E00011E0A0E0B1E0ECE4F5E102C005900D9271
:1001F000A233B107D9F722E0A2E3B1E001C01D921A
:10020000A238B207E1F728D20C94A40AF9CE9C01D7
:10021000DC01AE57BF4FED91FC9111978191A9017F
:1002200040585F4FE417F50761F0ED93FC934FB72B
:10023000F894F901EC57FF4F9081915090834FBF94
:1002400008952D933C93F3CFCF93DF9320915701E3
:10025000FC01860F3081932F9E70B1F0432F4F70B9
:10026000EF01219691E03B7054EF540F6991A22F5A
:10027000B0E0AA5CBE4F6C932F5F2F71913051F4A8
:10028000453011F04F3061F4982F9E1B953060F08F
:100290003496E0CF923021F43230B1F35230A0F3F3
:1002A0009F5F943019F7F0CF20935701DF91CF91E2
:1002B0000895982F80913501882301F180913401B0
:1002C00021E0280FE82FF0E0E85AFE4F2093340198
:1002D0009083973F49F48C5F8093580110923501C9
:1002E0001092330181E00895243011F080E00895E8
:1002F0002093580181E0809334010895983F50F095
:100300008FE0809358019093590110925A011092F6
:100310005B01E8CF97FF0DC0903F49F421E02093A7
:1003200035019093590192E0909334010895109211
:10033000330180913301811110C0392F32953F7004
:10034000232F27702F5F220F2093330130936001FA
:1003500090936101109263010895E82FF0E0EF5D42
:10036000FE4F4081282F217030E0205A3E4FF90186
:100370009283842F8F708093330147FFB7CF84E03F
:10038000E0E6F1E0A8E5B1E001900D928A95E1F791
:10039000A9CFCF93DF9300D000D0CDB7DEB778944C
:1003A00013E088E2F82E02E08091C80087FF0BC0BE
:1003B000E09068018091CE007CDF8E2980936801F7
:1003C0005D981093690180916801882361F068E568
:1003D00071E081E091E00E94280A81E091E00E94B2
:1003E0004B0A10926801BE016F5F7F4F81E091E080
:1003F0000E945E0A811143C08091C80085FF15C02C
:10040000E0915601809157018E1779F081E08E0FAF
:1004100080935601F0E0EA5CFE4F80818093CE002D
:10042000809156018F7180935601A89B19C0A89A9C
:1004300080916901882341F0809169018150809306
:100440006901811101C05D9A80916A01882341F0A0
:1004500080916A01815080936A01811101C05C9A88
:1004600083D680913201813009F09ECF80910001C6
:100470009FEF980F813059F09093000195CF64E081
:10048000CE010196E1DE5C9810936A01ACCFF09248
:10049000000185B1802785B987CF2FB7F89481EF08
:1004A00091E0909372028093710290937402809312
:1004B00073022FBF2FB7F8948CE691E09093ED0173
:1004C0008093EC019093EF018093EE012FBF78941D
:1004D00001EF11E0D3E09FB7F894809175029FBFC0
:1004E000803809F18AE091E058D797FD1CC0E0916F
:1004F0007102F09172028083809171029091720278
:100500009C012F5F3F4F8057924009F44FC03093BA
:100510007202209371029FB7F894809175028F5FE9
:10052000809375029FBF8FB7F894C091F0018FBF81
:10053000A89902C0C13610F1A89A8091F0018823D1
:1005400019F05D98D0936901C150A8F580916901B7
:10055000882341F080916901815080936901811164
:1005600001C05D9A80916A01882341F080916A01FF
:10057000815080936A01811101C05C9A9FB7F89401
:10058000809175029FBF882361F081EF91E03FDE8B
:100590009091C80095FFFCCF8093CE005C98D093DB
:1005A0006A018AE091E0EAD6DFD595CF1093720216
:1005B00000937102B0CF8CE691E029DE682F8AE0CB
:1005C00091E08ED6C1CF84B7877F84BF0FB6F894F1
:1005D000A89580916000886180936000109260000F
:1005E0000FBE82E084B98CE085B91A9922C01092BE
:1005F000200187E690E09093CD008093CC0086E0C8
:100600008093CA001092C80088E18093C900539A71
:100610005A9A84E085BD71D38AB180638AB98BB15F
:1006200080638BB980912001811102C05F9A579A33
:10063000089581E0809320011B990AC080933201C4
:100640001092CC0088E18093C9008EE085B9E1CF9B
:100650008FE18093CC00F6CFB6DF8091200181300E
:1006600009F497DE1ADF0895089580912001813002
:1006700019F481E091E0BBC68AE091E0EDC580917C
:100680002001811103C08AE091E080C508958F9216
:100690009F92AF92BF92FF920F931F93CF93DF93DE
:1006A00000D000D00F92CDB7DEB78C01DC0154969C
:1006B0008C9190E3F92E813029F020E2F22E8230E5
:1006C00009F0F12CF8018389823011F46894F3F871
:1006D000D80155968C91873009F453C0883009F4BD
:1006E00053C0863011F46894F1F81092C90010924A
:1006F000C8001092CA00F8012785308941895289C3
:100700002115F1EE3F074105510509F441C04901AA
:100710005A01B694A79497948794D501C401805840
:100720009B47A14EBF4F89839A83AB83BC83BC0197
:10073000CD01E2D6215031093093CD002093CC0079
:10074000F092CA00F80187859089A189B289811544
:10075000914EA105B105F9F082E08093C80088E9C7
:100760008093C9000F900F900F900F900F90DF9122
:10077000CF911F910F91FF90BF90AF909F908F905E
:1007800008956894F2F8B1CFBF2DB660FB2EADCFBF
:1007900020E130E0D1CF80E0E0CF1F921FB61F9262
:1007A00011242F938F939F93EF93FF9380912001B8
:1007B000811120C08091CE009EB39430D9F4E09195
:1007C000EC01F091ED018083E091EC01F091ED01FD
:1007D000CF01019621E0EB3EF207A9F09093ED01E5
:1007E0008093EC019FB7F8948091F0018F5F809324
:1007F000F0019FBFFF91EF919F918F912F911F90DB
:100800001FBE1F9018958CE691E092838183EACFFA
:10081000FC01858580FF02C05F9808955F9A089566
:10082000292F33272230310589F023303105C1F0DB
:100830002130310509F056C080912001813009F442
:1008400047C082E190E021EC31E050C0809120016E
:10085000813009F442C08EE390E021E731E046C0E8
:1008600099278130910561F018F00297E9F03AC0BC
:10087000E8E0F1E0E4918E2F90E028E031E036C02E
:1008800080912001813041F4E2EBF0E0E4918E2F81
:1008900090E022EB30E02AC0E6EDF0E0E4918E2F0C
:1008A00090E026ED30E022C080912001813041F4BB
:1008B000E8E8F0E0E4918E2F90E028E830E016C000
:1008C000EAE9F0E0E4918E2F90E02AE930E00EC0F2
:1008D00082E190E02FEA31E009C085E690E02CE06B
:1008E00031E004C080E090E020E030E0FA013183A4
:1008F00020830895AC0128E030E080E0241735071C
:1009000020F48F5F220F331FF9CF8295807F0895E7
:100910008093E900EBEEF0E0808181608083EDEE72
:10092000F0E010826093EC0040838091EE00881F1D
:100930008827881F08951092F40080E08093E900D2
:100940001092F0001092E8001092ED009091EB00F0
:100950009E7F9093EB008F5F853081F708958091A3
:100960007A0287FF0FC08091E80082FD04C08EB339
:100970008111F9CF10C08091E8008B770AC08EB347
:10098000882349F08091E80080FFF9CF8091E8004A
:100990008E778093E800089585E69091EC0090FFB3
:1009A00005C09091E80090FF05C01BC09091E80041
:1009B00092FD17C09EB39923B1F09EB39530A9F074
:1009C0009091EB0095FD13C09091E10092FFE5CF6F
:1009D0009091E1009B7F9093E1008150F1F684E0DB
:1009E000089580E0089582E0089583E0089581E00D
:1009F0000895EF92FF920F931F93CF93DF938C0193
:100A0000EB017A01C9DF81111DC02097D1F08091DF
:100A1000E80085FD0EC08091E8008E778093E800A5
:100A2000E114F10479F3F7010995813059F785E074
:100A300009C0F80180818093F10021970F5F1F4F5B
:100A4000E4CF80E0DF91CF911F910F91FF90EF9065
:100A50000895EF92FF920F931F93CF93DF938C0132
:100A6000EB017A0199DF81111DC02097D1F08091AF
:100A7000E80085FD0EC08091E8008B778093E80048
:100A8000E114F10479F3F7010995813059F785E014
:100A900009C08091F100F801808321970F5F1F4FFB
:100AA000E4CF80E0DF91CF911F910F91FF90EF9005
:100AB000089520918002309181022617370748F06F
:100AC0006115710539F42091E8002E772093E80034
:100AD00001C0B90130E06115710561F12091E800B4
:100AE00023FD37C02091E80022FD2DC02EB3222324
:100AF00091F12EB3253089F12091E80020FFEBCF52
:100B00002091F200FC01CF016115710549F02830F8
:100B100038F481918093F100615071092F5FF3CF18
:100B200031E0283009F030E02091E8002E77209362
:100B3000E800D1CF3111D2CF06C08EB3882359F04F
:100B40008EB3853051F08091E80082FFF6CF80E0CF
:100B5000089581E0089582E0089583E0089520914A
:100B60008002309181022617370748F06115710520
:100B700039F42091E8002E772093E80001C0B901F4
:100B800030E06115710569F12091E80023FD38C05E
:100B90002091E80022FD2EC02EB3222399F12EB31E
:100BA000253091F12091E80020FFEBCF2091F20059
:100BB000FC01CF016115710551F0283040F484919A
:100BC0008093F100615071092F5F3196F2CF31E0CF
:100BD000283009F030E02091E8002E772093E800DB
:100BE000D0CF3111D1CF06C08EB3882359F08EB348
:100BF000853051F08091E80082FFF6CF80E00895C3
:100C000081E0089582E0089583E0089561157105FB
:100C100029F42091E8002B772093E80061157105F5
:100C200011F12091E80023FD24C02EB3222319F1F5
:100C30002EB3253011F12091E80022FFEFCF209153
:100C4000F200222331F301962091F100FC0131974B
:100C500020836150710999F7DCCF8EB3882359F056
:100C60008EB3853051F08091E80080FFF6CF80E0B0
:100C7000089581E0089582E0089583E0089542D0C8
:100C800044D01EBA10927802109277021092760227
:100C900084E089BD89B5826089BD09B400FEFDCFBD
:100CA0008091D800982F9F779093D8008068809388
:100CB000D800809163008E7F809363008091D8007C
:100CC0008F7D8093D8008091E0008E7F8093E0003C
:100CD0008091E1008E7F8093E1008091E20081604D
:100CE0008093E2008091E100877F8093E100809112
:100CF000E20088608093E2000895C1DF81E0809384
:100D0000790208951092E20008951092E10008958A
:100D10001F920F920FB60F9211242F933F934F9370
:100D20005F936F937F938F939F93AF93BF93EF9353
:100D3000FF938091E10080FF1BC08091E20080FF63
:100D400017C08091E1008E7F8093E1008091E200E6
:100D50008E7F8093E2008091E20080618093E200C8
:100D60008091D80080628093D80019BC1EBA7CDCC8
:100D70008091E10084FF27C08091E20084FF23C0BE
:100D800084E089BD89B5826089BD09B400FEFDCFCC
:100D90008091D8008F7D8093D8008091E1008F7E74
:100DA0008093E1008091E2008F7E8093E200809149
:100DB000E20081608093E2008091780281114DC051
:100DC00081E08EBB50DC8091E10083FF27C08091E1
:100DD000E20083FF23C08091E100877F8093E100E0
:100DE00082E08EBB109278028091E1008E7F80932A
:100DF000E1008091E2008E7F8093E2008091E2002A
:100E000080618093E20097DD42E060E080E080DD79
:100E10008091F00088608093F000A5D18091E1007E
:100E200082FF0AC08091E20082FF06C08091E1004B
:100E30008B7F8093E10097D1FF91EF91BF91AF91AC
:100E40009F918F917F916F915F914F913F912F91E2
:100E50000F900FBE0F901F90189584E0B2CF1F9295
:100E60000F920FB60F921124FF920F931F932F939F
:100E70003F934F935F936F937F938F939F93AF9322
:100E8000BF93CF93DF93EF93FF93C9EED0E08881B8
:100E90008770F82E188200EF10E0F8018081877FBC
:100EA000808378941DD0F8941882F801808188603E
:100EB0008083F882FF91EF91DF91CF91BF91AF9145
:100EC0009F918F917F916F915F914F913F912F9162
:100ED0001F910F91FF900F900FBE0F901F901895CC
:100EE0001F93CF93DF93CDB7DEB7AA970FB6F894D1
:100EF000DEBF0FBECDBFEAE7F2E082E892E02091CC
:100F0000F10021938E179F07D1F780917A0290917B
:100F10007B02492F50E04A30510508F018C1FA0110
:100F2000E65CFF4F0BC3803881F0823809F00FC1B7
:100F300080917E0287708093E9008091EB0085FBB1
:100F4000882780F91092E90006C08091760290917E
:100F50007702911182609091E800977F9093E8006A
:100F60008093F1001092F100C0C0282F2D7F09F06E
:100F7000EEC0882319F0823061F0DAC080917C02E3
:100F8000813009F0D5C0933009F080E0809377027A
:100F90002BC080917C02811127C080917E028770D6
:100FA00009F4C6C08093E9002091EB0020FFC0C087
:100FB000933021F48091EB00806214C09091EB009B
:100FC00090619093EB0021E030E0A90102C0440F52
:100FD000551F8A95E2F74093EA001092EA0080914B
:100FE000EB0088608093EB001092E9008091E800AC
:100FF000877F7EC08111ABC010917C028091E80098
:10100000877F8093E800ABDC8091E80080FD04C01E
:101010008EB38111F9CF8CC0812F8F7711F492E0BC
:1010200001C093E09EBB80688093E30081C080583C
:10103000823008F08CC080917C0290917D028C3DC2
:1010400053E0950779F583E08A838AE289833FB785
:10105000F894DE01139690E02EE041E2E22FF0E0FA
:1010600040935700E49190FF03C0E295EF702F5F2B
:10107000EF7080E38E0F8A3310F0E95C01C0E82F37
:10108000F0E0ED93FD939F5F943141F73FBF809176
:10109000E800877F8093E8006AE270E0CE01019665
:1010A00008DD12C0AE014F5F5F4F60917E02B8DB7A
:1010B000BC01892B09F43CC09091E800977F909384
:1010C000E80089819A814BDD8091E8008B778093DD
:1010D000E8002EC08038D9F58091E800877F8093A2
:1010E000E800809178028093F1008091E8008E778B
:1010F0008093E80034DC1CC0811129C080917C02FF
:1011000090917D02992702979CF48091E800877F57
:101110008093E80080917C028093780220DC8091AB
:101120007802811102C083E001C084E08EBB9DDAA9
:101130008091E80083FF0DC08091EB008062809376
:10114000EB008091E800877F8093E80002C097DA87
:10115000EFCFAA960FB6F894DEBF0FBECDBFDF91DA
:10116000CF911F9108950895CF938EB3882359F09E
:10117000C091E900C7701092E9008091E80083FDFA
:10118000AFDEC093E900CF9108950895CF93DF9328
:10119000EC018091E80083FF12C0288180917E02DB
:1011A00090917F022817190651F480917B028232B8
:1011B00009F440C038F4803249F1813299F0DF916E
:1011C000CF9108958332D9F780917A028132B9F7AD
:1011D0008091E800877F8093E80060917C02CE01D7
:1011E000D4DF37C080917A02813A49F78091E800D4
:1011F000877F8093E80067E070E0CE010F9659DCAE
:101200008091E8008B778093E800D9CF80917A02B3
:101210008132A9F68091E800877F8093E80067E03B
:1012200070E0CE010F96F2DCCE0131DA8091E80059
:101230008E77E9CF80917A02813209F0C0CF809118
:10124000E800877F8093E80080917C028D87CE0143
:10125000DFDADF91CF9183CB0F931F93CF93DF938F
:10126000EC01FC013D9689E0DF011D928A95E9F7CA
:101270008A819B812C8110E0211114E009813ADBE5
:10128000412F482B426061E8802F42DB882311F117
:101290008E819F81288510E0211114E00D812ADBC9
:1012A000412F482B426060E8802F32DB882391F089
:1012B0008A859B852C8510E0211114E0C9851ADBF5
:1012C000412F482B426061EC8C2FDF91CF911F9111
:1012D0000F911ECB80E0DF91CF911F910F91089568
:1012E000CF93FC01C62F8EB38430E9F487859089B3
:1012F000A189B289892B8A2B8B2BA9F081818093BC
:10130000E9008091E80085FF05C0C093F10080E00E
:10131000CF9108958091E8008E778093E8003CDBC0
:10132000882399F3F5CF82E0F3CFFC018EB38430AC
:1013300019F587859089A189B289892B8A2B8B2BF6
:10134000D9F081818093E9008091F200811102C07F
:1013500080E008959091E8008091E8008E77809376
:10136000E80095FDF5CF18DB811107C09091E800EA
:101370009E779093E800089582E00895FC018EB373
:10138000843051F487859089A189B289892B8A2B71
:101390008B2B11F0CF01C9CF0895FC018EB384309F
:1013A00019F08FEF9FEF089587859089A189B28901
:1013B000892B8A2B8B2BA9F385818093E90080915F
:1013C000E80082FFEECF8091F200882369F08091DF
:1013D000F10090E02091F200211105C02091E80079
:1013E0002B772093E80008958FEF9FEFF3CF0F93B3
:1013F0001F93CF93DF93EC010981011115C01D816B
:1014000081E0112301F18E819F812885C0E02111A7
:10141000C4E070DA4C2F482B426060E8812FDF91E6
:10142000CF911F910F9174CA8A819B812C8110E00A
:10143000211114E05FDA412F482B426061E8802FD0
:1014400067DA8111DCCFDF91CF911F910F91089561
:10145000FC01CB012EB32430E1F421812093E9007B
:101460002091E80025FD02C080E0089550E040E0B2
:1014700064E070E0BEDA81110DC09091E800892F20
:10148000807295FDF1CF9091E8009E779093E800EF
:10149000089582E00895FC018EB3843069F481815F
:1014A0008093E9008091F200882339F08091E80070
:1014B0008E778093E80070CA82E00895FC01CB012A
:1014C0002EB3243011F080E0089525812093E900A7
:1014D0002091E80025FFF7CF50E040E064E070E0A5
:1014E000B8DA8091E80085FD05C08091E8008B772F
:1014F0008093E80081E00895A1E21A2EAA1BBB1B8D
:10150000FD010DC0AA1FBB1FEE1FFF1FA217B307CF
:10151000E407F50720F0A21BB30BE40BF50B661FE5
:10152000771F881F991F1A9469F7609570958095A9
:1015300090959B01AC01BD01CF010895EE0FFF1FF7
:0C1540000590F491E02D0994F894FFCF81
:10154C00280102400000014000000003400000049C
:10155C004000000208000000000000000000000035
:10156C0001000003820584078609888A008C000F1D
:02157C008E00DF
:00000001FF
